{
  "transactions": [
    {
      "hash": "0x29484ecc43531a72bbd492b866112b5705b29c8f9f5d1f2cd7ee9bee93573422",
      "transactionType": "CALL",
      "contractName": null,
      "contractAddress": "0x9c7a8bae46d4dd0496bd3016d1d8fb9e83e68f16",
      "function": "addBasketToken(address)",
      "arguments": [
        "0x0f97A213207703923F5f0C613C9827f7C9A0f96B"
      ],
      "transaction": {
        "from": "0xa1c1af949c5752e9714cfe54f444ce80f078069a",
        "to": "0x9c7a8bae46d4dd0496bd3016d1d8fb9e83e68f16",
        "gas": "0x20fc3",
        "value": "0x0",
        "input": "0x77823f8a0000000000000000000000000f97a213207703923f5f0c613c9827f7c9a0f96b",
        "nonce": "0x86",
        "chainId": "0xa475"
      },
      "additionalContracts": [],
      "isFixedGasLimit": false
    },
    {
      "hash": "0xa32992d2949eff2c6a52b86032d7afba0ba78895d91f17a70d3be029684d69b3",
      "transactionType": "CALL",
      "contractName": null,
      "contractAddress": "0x9c7a8bae46d4dd0496bd3016d1d8fb9e83e68f16",
      "function": "addBasketToken(address)",
      "arguments": [
        "0x7A58048036206bB898008b5bBDA85697DB1e5d66"
      ],
      "transaction": {
        "from": "0xa1c1af949c5752e9714cfe54f444ce80f078069a",
        "to": "0x9c7a8bae46d4dd0496bd3016d1d8fb9e83e68f16",
        "gas": "0x1b370",
        "value": "0x0",
        "input": "0x77823f8a0000000000000000000000007a58048036206bb898008b5bbda85697db1e5d66",
        "nonce": "0x87",
        "chainId": "0xa475"
      },
      "additionalContracts": [],
      "isFixedGasLimit": false
    },
    {
      "hash": "0x70143024699a7f8e32ca146ceae049ee7fe30faaed5f8f760832ab72cd8f90b0",
      "transactionType": "CALL",
      "contractName": null,
      "contractAddress": "0x9c7a8bae46d4dd0496bd3016d1d8fb9e83e68f16",
      "function": "addBasketToken(address)",
      "arguments": [
        "0x4f1A3D22d170a2F4Bddb37845a962322e24f4e34"
      ],
      "transaction": {
        "from": "0xa1c1af949c5752e9714cfe54f444ce80f078069a",
        "to": "0x9c7a8bae46d4dd0496bd3016d1d8fb9e83e68f16",
        "gas": "0x1b380",
        "value": "0x0",
        "input": "0x77823f8a0000000000000000000000004f1a3d22d170a2f4bddb37845a962322e24f4e34",
        "nonce": "0x88",
        "chainId": "0xa475"
      },
      "additionalContracts": [],
      "isFixedGasLimit": false
    },
    {
      "hash": "0x768199a48626d2472aa62688a4298000eccf01270f9480920507d883840cf118",
      "transactionType": "CALL",
      "contractName": null,
      "contractAddress": "0x9c7a8bae46d4dd0496bd3016d1d8fb9e83e68f16",
      "function": "addBasketToken(address)",
      "arguments": [
        "0x04B8F634ABC7C879763F623e0f0550a4b5c4426F"
      ],
      "transaction": {
        "from": "0xa1c1af949c5752e9714cfe54f444ce80f078069a",
        "to": "0x9c7a8bae46d4dd0496bd3016d1d8fb9e83e68f16",
        "gas": "0x1b380",
        "value": "0x0",
        "input": "0x77823f8a00000000000000000000000004b8f634abc7c879763f623e0f0550a4b5c4426f",
        "nonce": "0x89",
        "chainId": "0xa475"
      },
      "additionalContracts": [],
      "isFixedGasLimit": false
    },
    {
      "hash": "0xfada018783e41b0097894969e08ae3f8d9139e6d40615634018e02b6e05bd933",
      "transactionType": "CALL",
      "contractName": null,
      "contractAddress": "0x9c7a8bae46d4dd0496bd3016d1d8fb9e83e68f16",
      "function": "addBasketToken(address)",
      "arguments": [
        "0x148823809B853e1db187BC09A9ac909BC42F971a"
      ],
      "transaction": {
        "from": "0xa1c1af949c5752e9714cfe54f444ce80f078069a",
        "to": "0x9c7a8bae46d4dd0496bd3016d1d8fb9e83e68f16",
        "gas": "0x1b380",
        "value": "0x0",
        "input": "0x77823f8a000000000000000000000000148823809b853e1db187bc09a9ac909bc42f971a",
        "nonce": "0x8a",
        "chainId": "0xa475"
      },
      "additionalContracts": [],
      "isFixedGasLimit": false
    },
    {
      "hash": "0x2cef2f3ce09b076359fa3049afeaf2e79cb17b59946e5b8e0b104b7a6bf06a4f",
      "transactionType": "CALL",
      "contractName": null,
      "contractAddress": "0x9c7a8bae46d4dd0496bd3016d1d8fb9e83e68f16",
      "function": "addBasketToken(address)",
      "arguments": [
        "0xD7C6cA1e2c0CE260BE0c0AD39C1540de460e3Be1"
      ],
      "transaction": {
        "from": "0xa1c1af949c5752e9714cfe54f444ce80f078069a",
        "to": "0x9c7a8bae46d4dd0496bd3016d1d8fb9e83e68f16",
        "gas": "0x1b380",
        "value": "0x0",
        "input": "0x77823f8a000000000000000000000000d7c6ca1e2c0ce260be0c0ad39c1540de460e3be1",
        "nonce": "0x8b",
        "chainId": "0xa475"
      },
      "additionalContracts": [],
      "isFixedGasLimit": false
    },
    {
      "hash": "0x11cbf9fcf0678feab6823626338a433d1d152745a5841e31eb50dd2f6fdb566b",
      "transactionType": "CALL",
      "contractName": null,
      "contractAddress": "0x9c7a8bae46d4dd0496bd3016d1d8fb9e83e68f16",
      "function": "addBasketToken(address)",
      "arguments": [
        "0xFE6E9DF2BbC9ce05D98b83B1365df6DcA9951891"
      ],
      "transaction": {
        "from": "0xa1c1af949c5752e9714cfe54f444ce80f078069a",
        "to": "0x9c7a8bae46d4dd0496bd3016d1d8fb9e83e68f16",
        "gas": "0x1b380",
        "value": "0x0",
        "input": "0x77823f8a000000000000000000000000fe6e9df2bbc9ce05d98b83b1365df6dca9951891",
        "nonce": "0x8c",
        "chainId": "0xa475"
      },
      "additionalContracts": [],
      "isFixedGasLimit": false
    },
    {
      "hash": "0x52d23ec728b9705d5c4e830d207682265de63cc0ba811b66dba51d9ec8560f8a",
      "transactionType": "CALL",
      "contractName": null,
      "contractAddress": "0x9c7a8bae46d4dd0496bd3016d1d8fb9e83e68f16",
      "function": "addBasketToken(address)",
      "arguments": [
        "0x1091cCBA2FF8d2A131AE4B35e34cf3308C48572C"
      ],
      "transaction": {
        "from": "0xa1c1af949c5752e9714cfe54f444ce80f078069a",
        "to": "0x9c7a8bae46d4dd0496bd3016d1d8fb9e83e68f16",
        "gas": "0x1b380",
        "value": "0x0",
        "input": "0x77823f8a0000000000000000000000001091ccba2ff8d2a131ae4b35e34cf3308c48572c",
        "nonce": "0x8d",
        "chainId": "0xa475"
      },
      "additionalContracts": [],
      "isFixedGasLimit": false
    },
    {
      "hash": "0xb8058904d2c03e46f4c2010e797f6ffdd1e9d671d6c1a0dbf612cf8ed11eea74",
      "transactionType": "CALL",
      "contractName": null,
      "contractAddress": "0x9c7a8bae46d4dd0496bd3016d1d8fb9e83e68f16",
      "function": "addBasketToken(address)",
      "arguments": [
        "0x731aF1Da5365259d27528557EE4aFBA4baC90ef2"
      ],
      "transaction": {
        "from": "0xa1c1af949c5752e9714cfe54f444ce80f078069a",
        "to": "0x9c7a8bae46d4dd0496bd3016d1d8fb9e83e68f16",
        "gas": "0x1b380",
        "value": "0x0",
        "input": "0x77823f8a000000000000000000000000731af1da5365259d27528557ee4afba4bac90ef2",
        "nonce": "0x8e",
        "chainId": "0xa475"
      },
      "additionalContracts": [],
      "isFixedGasLimit": false
    },
    {
      "hash": "0x4cf1904aabfca1f38bce725af76f11a3cc7ad61317b9c2f5a1400c9b611501e1",
      "transactionType": "CALL",
      "contractName": null,
      "contractAddress": "0x9c7a8bae46d4dd0496bd3016d1d8fb9e83e68f16",
      "function": "addBasketToken(address)",
      "arguments": [
        "0x120EBf25Dad7D6a09Ad2316f23f9Be95DBb90639"
      ],
      "transaction": {
        "from": "0xa1c1af949c5752e9714cfe54f444ce80f078069a",
        "to": "0x9c7a8bae46d4dd0496bd3016d1d8fb9e83e68f16",
        "gas": "0x1b380",
        "value": "0x0",
        "input": "0x77823f8a000000000000000000000000120ebf25dad7d6a09ad2316f23f9be95dbb90639",
        "nonce": "0x8f",
        "chainId": "0xa475"
      },
      "additionalContracts": [],
      "isFixedGasLimit": false
    }
  ],
  "receipts": [
    {
      "status": "0x1",
      "cumulativeGasUsed": "0x17e18",
      "logs": [
        {
          "address": "0x9c7a8bae46d4dd0496bd3016d1d8fb9e83e68f16",
          "topics": [
            "0x9141b4e9b0de20ae0bc4f0473a76ad9356efe0016d61ee18d0759471c712dbd2",
            "0x0000000000000000000000000f97a213207703923f5f0c613c9827f7c9a0f96b"
          ],
          "data": "0x0000000000000000000000000000000000000000000000000000000000000001",
          "blockHash": "0x9849bba99177a20dca76c82a21c04584180035624ecea6811a96c2a556b5c740",
          "blockNumber": "0xeeba95",
          "transactionHash": "0x29484ecc43531a72bbd492b866112b5705b29c8f9f5d1f2cd7ee9bee93573422",
          "transactionIndex": "0x0",
          "logIndex": "0x0",
          "removed": false
        }
      ],
      "logsBloom": "0x00000000000000000000000000800000000000000000000000000000001000000000000000000000000000000000000000000000000000000000000000000000000000000800000000000000000000000040000020000000000000000000000000001000000000000000000000000000000000000000000000000000000000400000000000000000000000000000000000000000000000000000000000000000000000000000000000000000000000000000000000000000000001000000000000000000000000000000000000000000000000000000000000000000000000000000000000000000000001000000000000000000000000000000000000000000",
      "type": "0x2",
      "transactionHash": "0x29484ecc43531a72bbd492b866112b5705b29c8f9f5d1f2cd7ee9bee93573422",
      "transactionIndex": "0x0",
      "blockHash": "0x9849bba99177a20dca76c82a21c04584180035624ecea6811a96c2a556b5c740",
      "blockNumber": "0xeeba95",
      "gasUsed": "0x17e18",
      "effectiveGasPrice": "0x50775d80",
      "from": "0xa1c1af949c5752e9714cfe54f444ce80f078069a",
      "to": "0x9c7a8bae46d4dd0496bd3016d1d8fb9e83e68f16",
      "contractAddress": null
    },
    {
      "status": "0x1",
      "cumulativeGasUsed": "0x13b40",
      "logs": [
        {
          "address": "0x9c7a8bae46d4dd0496bd3016d1d8fb9e83e68f16",
          "topics": [
            "0x9141b4e9b0de20ae0bc4f0473a76ad9356efe0016d61ee18d0759471c712dbd2",
            "0x0000000000000000000000007a58048036206bb898008b5bbda85697db1e5d66"
          ],
          "data": "0x0000000000000000000000000000000000000000000000000000000000000001",
          "blockHash": "0x7eae2b47c77d680199b5fbd0c4b94ede410b2a5a6fa78361ae92d5db268bb6e1",
          "blockNumber": "0xeeba98",
          "transactionHash": "0xa32992d2949eff2c6a52b86032d7afba0ba78895d91f17a70d3be029684d69b3",
          "transactionIndex": "0x0",
          "logIndex": "0x0",
          "removed": false
        }
      ],
      "logsBloom": "0x00000000000000000000000000800000000000000000000000080000401000000000000000000000000000000000000000000000000000000000000000000000000000000800000000000000000000000040000000000000000000000000000000001000000000000000000000000000000000000000000000000000000000400000000000000000000000000000000000000000000000000000000000000000000000000000000000000000000000000000000100000000000000000000000000000000000000000000000000000000000000000000000000000000000000000000000000000000000000000000000000000000000000000000000000000000",
      "type": "0x2",
      "transactionHash": "0xa32992d2949eff2c6a52b86032d7afba0ba78895d91f17a70d3be029684d69b3",
      "transactionIndex": "0x0",
      "blockHash": "0x7eae2b47c77d680199b5fbd0c4b94ede410b2a5a6fa78361ae92d5db268bb6e1",
      "blockNumber": "0xeeba98",
      "gasUsed": "0x13b40",
      "effectiveGasPrice": "0x50775d80",
      "from": "0xa1c1af949c5752e9714cfe54f444ce80f078069a",
      "to": "0x9c7a8bae46d4dd0496bd3016d1d8fb9e83e68f16",
      "contractAddress": null
    },
    {
      "status": "0x1",
      "cumulativeGasUsed": "0x13b4c",
      "logs": [
        {
          "address": "0x9c7a8bae46d4dd0496bd3016d1d8fb9e83e68f16",
          "topics": [
            "0x9141b4e9b0de20ae0bc4f0473a76ad9356efe0016d61ee18d0759471c712dbd2",
            "0x0000000000000000000000004f1a3d22d170a2f4bddb37845a962322e24f4e34"
          ],
          "data": "0x0000000000000000000000000000000000000000000000000000000000000001",
          "blockHash": "0x4bb79a334cb8bfdcb74d19e70bff6c5f335a76964f7a129a3570455ea078453e",
          "blockNumber": "0xeeba9a",
          "transactionHash": "0x70143024699a7f8e32ca146ceae049ee7fe30faaed5f8f760832ab72cd8f90b0",
          "transactionIndex": "0x0",
          "logIndex": "0x0",
          "removed": false
        }
      ],
      "logsBloom": "0x00000000000000000000000000800000000000000000000000000000001000000000000000000000000000000000000000000000000000000000000000000000000000000800000000000000000000000040001000000000000000000000000000001000000000000000000000000000000000000000000000000000000000400000000000000000000000000000000000000000000000000000000000000000000000000000000000000000000000000000000000000000000000000000000000000000000000000000000000000000000000001000000000000000000000000000000000000000000000000000000000000000400000000000000000000000",
      "type": "0x2",
      "transactionHash": "0x70143024699a7f8e32ca146ceae049ee7fe30faaed5f8f760832ab72cd8f90b0",
      "transactionIndex": "0x0",
      "blockHash": "0x4bb79a334cb8bfdcb74d19e70bff6c5f335a76964f7a129a3570455ea078453e",
      "blockNumber": "0xeeba9a",
      "gasUsed": "0x13b4c",
      "effectiveGasPrice": "0x50775d80",
      "from": "0xa1c1af949c5752e9714cfe54f444ce80f078069a",
      "to": "0x9c7a8bae46d4dd0496bd3016d1d8fb9e83e68f16",
      "contractAddress": null
    },
    {
      "status": "0x1",
      "cumulativeGasUsed": "0x13b4c",
      "logs": [
        {
          "address": "0x9c7a8bae46d4dd0496bd3016d1d8fb9e83e68f16",
          "topics": [
            "0x9141b4e9b0de20ae0bc4f0473a76ad9356efe0016d61ee18d0759471c712dbd2",
            "0x00000000000000000000000004b8f634abc7c879763f623e0f0550a4b5c4426f"
          ],
          "data": "0x0000000000000000000000000000000000000000000000000000000000000001",
          "blockHash": "0x034a72f075a17eaa0ec2eff466daee0eaa573e0a83b4a8d36fde85655e0562ac",
          "blockNumber": "0xeeba9c",
          "transactionHash": "0x768199a48626d2472aa62688a4298000eccf01270f9480920507d883840cf118",
          "transactionIndex": "0x0",
          "logIndex": "0x0",
          "removed": false
        }
      ],
      "logsBloom": "0x00000000000000000000000000800000000000000000000000000000001000000000000000000000000000000000000200000000000000000000000000000000000000000800000000000000000000000040000000000000000000000000000000001000000000000000000000000000000000000000000000000000000000400000000000000000000000000000000000000002000000000000000000000000000000000000000000000000000000000000000000000000000000100000000000000000000000000000000000000000000000000000000000000000000000000000000000000000000000000000000000000000000000000000000000000000",
      "type": "0x2",
      "transactionHash": "0x768199a48626d2472aa62688a4298000eccf01270f9480920507d883840cf118",
      "transactionIndex": "0x0",
      "blockHash": "0x034a72f075a17eaa0ec2eff466daee0eaa573e0a83b4a8d36fde85655e0562ac",
      "blockNumber": "0xeeba9c",
      "gasUsed": "0x13b4c",
      "effectiveGasPrice": "0x50775d80",
      "from": "0xa1c1af949c5752e9714cfe54f444ce80f078069a",
      "to": "0x9c7a8bae46d4dd0496bd3016d1d8fb9e83e68f16",
      "contractAddress": null
    },
    {
      "status": "0x1",
      "cumulativeGasUsed": "0x5b3e5",
      "logs": [
        {
          "address": "0x9c7a8bae46d4dd0496bd3016d1d8fb9e83e68f16",
          "topics": [
            "0x9141b4e9b0de20ae0bc4f0473a76ad9356efe0016d61ee18d0759471c712dbd2",
            "0x000000000000000000000000148823809b853e1db187bc09a9ac909bc42f971a"
          ],
          "data": "0x0000000000000000000000000000000000000000000000000000000000000001",
          "blockHash": "0x9856de4af257f61059cbcdcd6f8da4856af4b335769fd154cf31d58b57a155c0",
          "blockNumber": "0xeeba9e",
          "transactionHash": "0xfada018783e41b0097894969e08ae3f8d9139e6d40615634018e02b6e05bd933",
          "transactionIndex": "0x1",
          "logIndex": "0x1",
          "removed": false
        }
      ],
      "logsBloom": "0x00000000000000000000000000800000000000000000000000000000001000000000000000000000000000000000000000000000000000200000000000000000000000000800000000000000000000004040000000000000000000000000000000001000000000000000000000000000000000000000000000000000000000400000000000000000000000000000000000000000000000000000000000000000000000000000000000000000000000000000000000000000000000000000000000000000000000000000000000000000000000000000000000000000000000000000000000000000000000000000000000000004000000000000000000000000",
      "type": "0x2",
      "transactionHash": "0xfada018783e41b0097894969e08ae3f8d9139e6d40615634018e02b6e05bd933",
      "transactionIndex": "0x1",
      "blockHash": "0x9856de4af257f61059cbcdcd6f8da4856af4b335769fd154cf31d58b57a155c0",
      "blockNumber": "0xeeba9e",
      "gasUsed": "0x13b4c",
      "effectiveGasPrice": "0x50775d80",
      "from": "0xa1c1af949c5752e9714cfe54f444ce80f078069a",
      "to": "0x9c7a8bae46d4dd0496bd3016d1d8fb9e83e68f16",
      "contractAddress": null
    },
    {
      "status": "0x1",
      "cumulativeGasUsed": "0x13b4c",
      "logs": [
        {
          "address": "0x9c7a8bae46d4dd0496bd3016d1d8fb9e83e68f16",
          "topics": [
            "0x9141b4e9b0de20ae0bc4f0473a76ad9356efe0016d61ee18d0759471c712dbd2",
            "0x000000000000000000000000d7c6ca1e2c0ce260be0c0ad39c1540de460e3be1"
          ],
          "data": "0x0000000000000000000000000000000000000000000000000000000000000001",
          "blockHash": "0x3846715942a5c5098de1e36150c078b46960acad666546fa090106c1a2a92b3d",
          "blockNumber": "0xeeba9f",
          "transactionHash": "0x2cef2f3ce09b076359fa3049afeaf2e79cb17b59946e5b8e0b104b7a6bf06a4f",
          "transactionIndex": "0x0",
          "logIndex": "0x0",
          "removed": false
        }
      ],
      "logsBloom": "0x00000000000000000000000000800000000000000000000000000000001000000000000000000000000000000000000000000000000000000000004000000000000000000800000000000000000000000040000000000000000000000000000000001000000000000000000000000000000000000000000000010000000000400000000000000000000000000000000000000000000000000000000000000000000000000000000000000000000000000000000000000000000000000000000000000000000000000000000000000000000000000000000000000000000020000000000000000000000000000000000000000000000000000000000000000000",
      "type": "0x2",
      "transactionHash": "0x2cef2f3ce09b076359fa3049afeaf2e79cb17b59946e5b8e0b104b7a6bf06a4f",
      "transactionIndex": "0x0",
      "blockHash": "0x3846715942a5c5098de1e36150c078b46960acad666546fa090106c1a2a92b3d",
      "blockNumber": "0xeeba9f",
      "gasUsed": "0x13b4c",
      "effectiveGasPrice": "0x50775d80",
      "from": "0xa1c1af949c5752e9714cfe54f444ce80f078069a",
      "to": "0x9c7a8bae46d4dd0496bd3016d1d8fb9e83e68f16",
      "contractAddress": null
    },
    {
      "status": "0x1",
      "cumulativeGasUsed": "0x13b4c",
      "logs": [
        {
          "address": "0x9c7a8bae46d4dd0496bd3016d1d8fb9e83e68f16",
          "topics": [
            "0x9141b4e9b0de20ae0bc4f0473a76ad9356efe0016d61ee18d0759471c712dbd2",
            "0x000000000000000000000000fe6e9df2bbc9ce05d98b83b1365df6dca9951891"
          ],
          "data": "0x0000000000000000000000000000000000000000000000000000000000000001",
          "blockHash": "0xe1ecc572c1505ac1f0d21aef29c8066051c96f3a7f705897e43347b652e6cad1",
          "blockNumber": "0xeebaa2",
          "transactionHash": "0x11cbf9fcf0678feab6823626338a433d1d152745a5841e31eb50dd2f6fdb566b",
          "transactionIndex": "0x0",
          "logIndex": "0x0",
          "removed": false
        }
      ],
      "logsBloom": "0x00000000000000000000000000800000000000000000000000000000001000000000000000000000000000000000000000000000000000000000000000000000000000000800000000000800008000000040000000000000000000000000000000001000000000000000000000000000000000000000000000000000000000400000000000000000000000000000000000000000000000000000000000000000000000000000000000000000000000000000000000000000000000000000000000000000000000000000000000000000000000000000000000000000000000000000000000000000000000000000000000800000000000000000000000000000",
      "type": "0x2",
      "transactionHash": "0x11cbf9fcf0678feab6823626338a433d1d152745a5841e31eb50dd2f6fdb566b",
      "transactionIndex": "0x0",
      "blockHash": "0xe1ecc572c1505ac1f0d21aef29c8066051c96f3a7f705897e43347b652e6cad1",
      "blockNumber": "0xeebaa2",
      "gasUsed": "0x13b4c",
      "effectiveGasPrice": "0x50775d80",
      "from": "0xa1c1af949c5752e9714cfe54f444ce80f078069a",
      "to": "0x9c7a8bae46d4dd0496bd3016d1d8fb9e83e68f16",
      "contractAddress": null
    },
    {
      "status": "0x1",
      "cumulativeGasUsed": "0x13b4c",
      "logs": [
        {
          "address": "0x9c7a8bae46d4dd0496bd3016d1d8fb9e83e68f16",
          "topics": [
            "0x9141b4e9b0de20ae0bc4f0473a76ad9356efe0016d61ee18d0759471c712dbd2",
            "0x0000000000000000000000001091ccba2ff8d2a131ae4b35e34cf3308c48572c"
          ],
          "data": "0x0000000000000000000000000000000000000000000000000000000000000001",
          "blockHash": "0xfb5b0d8b0572868606a2a8e19563f203442d794c8ed9b80b1b0a9f498cb8c295",
          "blockNumber": "0xeebaa4",
          "transactionHash": "0x52d23ec728b9705d5c4e830d207682265de63cc0ba811b66dba51d9ec8560f8a",
          "transactionIndex": "0x0",
          "logIndex": "0x0",
          "removed": false
        }
      ],
      "logsBloom": "0x00000000000000000000000000800000000000000000000000000000001000000000000000000000000000000000000000000000000000000000000000000000000000000800000000000400000000000040000000000200000000000000000000001000000000000000000000000000000000000000000000000000000000400000000000000000000000000000000000000000000000000000000000000000000000000000000000000000000000000000000000000000000020000000000000000000000000000000000000000000000000000000000000000000000000000000000000000000000000000000000000000000000000000000000000000000",
      "type": "0x2",
      "transactionHash": "0x52d23ec728b9705d5c4e830d207682265de63cc0ba811b66dba51d9ec8560f8a",
      "transactionIndex": "0x0",
      "blockHash": "0xfb5b0d8b0572868606a2a8e19563f203442d794c8ed9b80b1b0a9f498cb8c295",
      "blockNumber": "0xeebaa4",
      "gasUsed": "0x13b4c",
      "effectiveGasPrice": "0x50775d80",
      "from": "0xa1c1af949c5752e9714cfe54f444ce80f078069a",
      "to": "0x9c7a8bae46d4dd0496bd3016d1d8fb9e83e68f16",
      "contractAddress": null
    },
    {
      "status": "0x1",
      "cumulativeGasUsed": "0x13b4c",
      "logs": [
        {
          "address": "0x9c7a8bae46d4dd0496bd3016d1d8fb9e83e68f16",
          "topics": [
            "0x9141b4e9b0de20ae0bc4f0473a76ad9356efe0016d61ee18d0759471c712dbd2",
            "0x000000000000000000000000731af1da5365259d27528557ee4afba4bac90ef2"
          ],
          "data": "0x0000000000000000000000000000000000000000000000000000000000000001",
          "blockHash": "0x6e600926dfd4c9e4847863e20fdfd9092acfb4a22d8c72da09c3e09cc0471d8c",
          "blockNumber": "0xeebaa6",
          "transactionHash": "0xb8058904d2c03e46f4c2010e797f6ffdd1e9d671d6c1a0dbf612cf8ed11eea74",
          "transactionIndex": "0x0",
          "logIndex": "0x0",
          "removed": false
        }
      ],
      "logsBloom": "0x00000000000000000000000000800000000000000000000004000000001000000000000000000000000000000000000000000000000000000000000000000000000000000800000000000000000000000040000000000000000000000000000000001000000000000000000000000000000000000000000000000000000000400000000000000000000000000000000000000000000040000000000000000000000000800000000000000000000000000000000000000000000000000000000000000000000000000000000000000000000000000000000000000000000000000000000000000000000000000000000000000000000000000000000000000000",
      "type": "0x2",
      "transactionHash": "0xb8058904d2c03e46f4c2010e797f6ffdd1e9d671d6c1a0dbf612cf8ed11eea74",
      "transactionIndex": "0x0",
      "blockHash": "0x6e600926dfd4c9e4847863e20fdfd9092acfb4a22d8c72da09c3e09cc0471d8c",
      "blockNumber": "0xeebaa6",
      "gasUsed": "0x13b4c",
      "effectiveGasPrice": "0x50775d80",
      "from": "0xa1c1af949c5752e9714cfe54f444ce80f078069a",
      "to": "0x9c7a8bae46d4dd0496bd3016d1d8fb9e83e68f16",
      "contractAddress": null
    },
    {
      "status": "0x1",
      "cumulativeGasUsed": "0x13b4c",
      "logs": [
        {
          "address": "0x9c7a8bae46d4dd0496bd3016d1d8fb9e83e68f16",
          "topics": [
            "0x9141b4e9b0de20ae0bc4f0473a76ad9356efe0016d61ee18d0759471c712dbd2",
            "0x000000000000000000000000120ebf25dad7d6a09ad2316f23f9be95dbb90639"
          ],
          "data": "0x0000000000000000000000000000000000000000000000000000000000000001",
          "blockHash": "0xa02ddcef43ae39fd71485e9be76f425c42b70980387b2154434fddaedb86ee9d",
          "blockNumber": "0xeebaa8",
          "transactionHash": "0x4cf1904aabfca1f38bce725af76f11a3cc7ad61317b9c2f5a1400c9b611501e1",
          "transactionIndex": "0x0",
          "logIndex": "0x0",
          "removed": false
        }
      ],
      "logsBloom": "0x00000000000000000000000000800000000000000000000000000000001000000000000000000000000000000000000000000000000000000000000000000000000000000800000000000000000000000040000000000000000000000000000000001000000000800000000000000000000000000000000000000000000000400000000000000000000000000000000000000000000000000000000000000000000000100000000000000000000000000000000000000000000000000000000000000000000000000000000000000000000000000000000000000000000000020000000000000000000000000000000000000000000000000000000000000000",
      "type": "0x2",
      "transactionHash": "0x4cf1904aabfca1f38bce725af76f11a3cc7ad61317b9c2f5a1400c9b611501e1",
      "transactionIndex": "0x0",
      "blockHash": "0xa02ddcef43ae39fd71485e9be76f425c42b70980387b2154434fddaedb86ee9d",
      "blockNumber": "0xeebaa8",
      "gasUsed": "0x13b4c",
      "effectiveGasPrice": "0x50775d80",
      "from": "0xa1c1af949c5752e9714cfe54f444ce80f078069a",
      "to": "0x9c7a8bae46d4dd0496bd3016d1d8fb9e83e68f16",
      "contractAddress": null
    }
  ],
  "libraries": [],
  "pending": [],
  "returns": {},
  "timestamp": 1779044235974,
  "chain": 42101,
  "commit": "fdd113a"
}